{
  "_format": "hh-sol-artifact-1",
  "contractName": "APXFaucet",
  "sourceName": "contracts/APXFaucet.sol",
  "abi": [
    {
      "inputs": [
        {
          "internalType": "address",
          "name": "_token",
          "type": "address"
        }
      ],
      "stateMutability": "nonpayable",
      "type": "constructor"
    },
    {
      "inputs": [
        {
          "internalType": "address",
          "name": "owner",
          "type": "address"
        }
      ],
      "name": "OwnableInvalidOwner",
      "type": "error"
    },
    {
      "inputs": [
        {
          "internalType": "address",
          "name": "account",
          "type": "address"
        }
      ],
      "name": "OwnableUnauthorizedAccount",
      "type": "error"
    },
    {
      "anonymous": false,
      "inputs": [
        {
          "indexed": true,
          "internalType": "address",
          "name": "previousOwner",
          "type": "address"
        },
        {
          "indexed": true,
          "internalType": "address",
          "name": "newOwner",
          "type": "address"
        }
      ],
      "name": "OwnershipTransferred",
      "type": "event"
    },
    {
      "anonymous": false,
      "inputs": [
        {
          "indexed": true,
          "internalType": "address",
          "name": "user",
          "type": "address"
        },
        {
          "indexed": false,
          "internalType": "uint256",
          "name": "amount",
          "type": "uint256"
        }
      ],
      "name": "TokensRequested",
      "type": "event"
    },
    {
      "inputs": [],
      "name": "amount",
      "outputs": [
        {
          "internalType": "uint256",
          "name": "",
          "type": "uint256"
        }
      ],
      "stateMutability": "view",
      "type": "function"
    },
    {
      "inputs": [
        {
          "internalType": "uint256",
          "name": "_amount",
          "type": "uint256"
        }
      ],
      "name": "fundFaucet",
      "outputs": [],
      "stateMutability": "nonpayable",
      "type": "function"
    },
    {
      "inputs": [
        {
          "internalType": "address",
          "name": "user",
          "type": "address"
        }
      ],
      "name": "getRemainingTime",
      "outputs": [
        {
          "internalType": "uint256",
          "name": "",
          "type": "uint256"
        }
      ],
      "stateMutability": "view",
      "type": "function"
    },
    {
      "inputs": [
        {
          "internalType": "address",
          "name": "",
          "type": "address"
        }
      ],
      "name": "lastRequest",
      "outputs": [
        {
          "internalType": "uint256",
          "name": "",
          "type": "uint256"
        }
      ],
      "stateMutability": "view",
      "type": "function"
    },
    {
      "inputs": [],
      "name": "owner",
      "outputs": [
        {
          "internalType": "address",
          "name": "",
          "type": "address"
        }
      ],
      "stateMutability": "view",
      "type": "function"
    },
    {
      "inputs": [],
      "name": "renounceOwnership",
      "outputs": [],
      "stateMutability": "nonpayable",
      "type": "function"
    },
    {
      "inputs": [],
      "name": "requestTokens",
      "outputs": [],
      "stateMutability": "nonpayable",
      "type": "function"
    },
    {
      "inputs": [],
      "name": "token",
      "outputs": [
        {
          "internalType": "contract ERC20",
          "name": "",
          "type": "address"
        }
      ],
      "stateMutability": "view",
      "type": "function"
    },
    {
      "inputs": [
        {
          "internalType": "address",
          "name": "newOwner",
          "type": "address"
        }
      ],
      "name": "transferOwnership",
      "outputs": [],
      "stateMutability": "nonpayable",
      "type": "function"
    },
    {
      "inputs": [],
      "name": "waitTime",
      "outputs": [
        {
          "internalType": "uint256",
          "name": "",
          "type": "uint256"
        }
      ],
      "stateMutability": "view",
      "type": "function"
    },
    {
      "inputs": [
        {
          "internalType": "uint256",
          "name": "_amount",
          "type": "uint256"
        }
      ],
      "name": "withdraw",
      "outputs": [],
      "stateMutability": "nonpayable",
      "type": "function"
    }
  ],
  "bytecode": "0x608060405268056bc75e2d63100000600255620151806003553480156200002557600080fd5b506040516200101f3803806200101f83398181016040528101906200004b919062000249565b33600073ffffffffffffffffffffffffffffffffffffffff168173ffffffffffffffffffffffffffffffffffffffff1603620000c15760006040517f1e4fbdf7000000000000000000000000000000000000000000000000000000008152600401620000b891906200028c565b60405180910390fd5b620000d2816200011b60201b60201c565b5080600160006101000a81548173ffffffffffffffffffffffffffffffffffffffff021916908373ffffffffffffffffffffffffffffffffffffffff16021790555050620002a9565b60008060009054906101000a900473ffffffffffffffffffffffffffffffffffffffff169050816000806101000a81548173ffffffffffffffffffffffffffffffffffffffff021916908373ffffffffffffffffffffffffffffffffffffffff1602179055508173ffffffffffffffffffffffffffffffffffffffff168173ffffffffffffffffffffffffffffffffffffffff167f8be0079c531659141344cd1fd0a4f28419497f9722a3daafe3b4186f6b6457e060405160405180910390a35050565b600080fd5b600073ffffffffffffffffffffffffffffffffffffffff82169050919050565b60006200021182620001e4565b9050919050565b620002238162000204565b81146200022f57600080fd5b50565b600081519050620002438162000218565b92915050565b600060208284031215620002625762000261620001df565b5b6000620002728482850162000232565b91505092915050565b620002868162000204565b82525050565b6000602082019050620002a360008301846200027b565b92915050565b610d6680620002b96000396000f3fe608060405234801561001057600080fd5b50600436106100a95760003560e01c80638da5cb5b116100715780638da5cb5b1461013e578063aa8c217c1461015c578063ae0140b41461017a578063ccca123b14610196578063f2fde38b146101b4578063fc0c546a146101d0576100a9565b80630e85117a146100ae5780632e1a7d4d146100de578063359cf2b7146100fa5780636fb9584f14610104578063715018a614610134575b600080fd5b6100c860048036038101906100c3919061094b565b6101ee565b6040516100d59190610991565b60405180910390f35b6100f860048036038101906100f391906109d8565b61027f565b005b610102610332565b005b61011e6004803603810190610119919061094b565b6105da565b60405161012b9190610991565b60405180910390f35b61013c6105f2565b005b610146610606565b6040516101539190610a14565b60405180910390f35b61016461062f565b6040516101719190610991565b60405180910390f35b610194600480360381019061018f91906109d8565b610635565b005b61019e6106e3565b6040516101ab9190610991565b60405180910390f35b6101ce60048036038101906101c9919061094b565b6106e9565b005b6101d861076f565b6040516101e59190610a8e565b60405180910390f35b600080600460008473ffffffffffffffffffffffffffffffffffffffff1673ffffffffffffffffffffffffffffffffffffffff1681526020019081526020016000205490506000810361024557600091505061027a565b6000600354826102559190610ad8565b90508042106102695760009250505061027a565b42816102759190610b0c565b925050505b919050565b610287610795565b600160009054906101000a900473ffffffffffffffffffffffffffffffffffffffff1673ffffffffffffffffffffffffffffffffffffffff1663a9059cbb6102cd610606565b836040518363ffffffff1660e01b81526004016102eb929190610b40565b6020604051808303816000875af115801561030a573d6000803e3d6000fd5b505050506040513d601f19601f8201168201806040525081019061032e9190610ba1565b5050565b600354600460003373ffffffffffffffffffffffffffffffffffffffff1673ffffffffffffffffffffffffffffffffffffffff1681526020019081526020016000205461037f9190610ad8565b4210156103c1576040517f08c379a00000000000000000000000000000000000000000000000000000000081526004016103b890610c2b565b60405180910390fd5b600254600160009054906101000a900473ffffffffffffffffffffffffffffffffffffffff1673ffffffffffffffffffffffffffffffffffffffff166370a08231306040518263ffffffff1660e01b815260040161041f9190610a14565b602060405180830381865afa15801561043c573d6000803e3d6000fd5b505050506040513d601f19601f820116820180604052508101906104609190610c60565b10156104a1576040517f08c379a000000000000000000000000000000000000000000000000000000000815260040161049890610cd9565b60405180910390fd5b42600460003373ffffffffffffffffffffffffffffffffffffffff1673ffffffffffffffffffffffffffffffffffffffff16815260200190815260200160002081905550600160009054906101000a900473ffffffffffffffffffffffffffffffffffffffff1673ffffffffffffffffffffffffffffffffffffffff1663a9059cbb336002546040518363ffffffff1660e01b8152600401610544929190610b40565b6020604051808303816000875af1158015610563573d6000803e3d6000fd5b505050506040513d601f19601f820116820180604052508101906105879190610ba1565b503373ffffffffffffffffffffffffffffffffffffffff167fc3fb6c98272d7a0d5dc26727b61c00ece2e5bf3dbdc0284659e28d441c1ce06c6002546040516105d09190610991565b60405180910390a2565b60046020528060005260406000206000915090505481565b6105fa610795565b610604600061081c565b565b60008060009054906101000a900473ffffffffffffffffffffffffffffffffffffffff16905090565b60025481565b61063d610795565b600160009054906101000a900473ffffffffffffffffffffffffffffffffffffffff1673ffffffffffffffffffffffffffffffffffffffff166323b872dd3330846040518463ffffffff1660e01b815260040161069c93929190610cf9565b6020604051808303816000875af11580156106bb573d6000803e3d6000fd5b505050506040513d601f19601f820116820180604052508101906106df9190610ba1565b5050565b60035481565b6106f1610795565b600073ffffffffffffffffffffffffffffffffffffffff168173ffffffffffffffffffffffffffffffffffffffff16036107635760006040517f1e4fbdf700000000000000000000000000000000000000000000000000000000815260040161075a9190610a14565b60405180910390fd5b61076c8161081c565b50565b600160009054906101000a900473ffffffffffffffffffffffffffffffffffffffff1681565b61079d6108e0565b73ffffffffffffffffffffffffffffffffffffffff166107bb610606565b73ffffffffffffffffffffffffffffffffffffffff161461081a576107de6108e0565b6040517f118cdaa70000000000000000000000000000000000000000000000000000000081526004016108119190610a14565b60405180910390fd5b565b60008060009054906101000a900473ffffffffffffffffffffffffffffffffffffffff169050816000806101000a81548173ffffffffffffffffffffffffffffffffffffffff021916908373ffffffffffffffffffffffffffffffffffffffff1602179055508173ffffffffffffffffffffffffffffffffffffffff168173ffffffffffffffffffffffffffffffffffffffff167f8be0079c531659141344cd1fd0a4f28419497f9722a3daafe3b4186f6b6457e060405160405180910390a35050565b600033905090565b600080fd5b600073ffffffffffffffffffffffffffffffffffffffff82169050919050565b6000610918826108ed565b9050919050565b6109288161090d565b811461093357600080fd5b50565b6000813590506109458161091f565b92915050565b600060208284031215610961576109606108e8565b5b600061096f84828501610936565b91505092915050565b6000819050919050565b61098b81610978565b82525050565b60006020820190506109a66000830184610982565b92915050565b6109b581610978565b81146109c057600080fd5b50565b6000813590506109d2816109ac565b92915050565b6000602082840312156109ee576109ed6108e8565b5b60006109fc848285016109c3565b91505092915050565b610a0e8161090d565b82525050565b6000602082019050610a296000830184610a05565b92915050565b6000819050919050565b6000610a54610a4f610a4a846108ed565b610a2f565b6108ed565b9050919050565b6000610a6682610a39565b9050919050565b6000610a7882610a5b565b9050919050565b610a8881610a6d565b82525050565b6000602082019050610aa36000830184610a7f565b92915050565b7f4e487b7100000000000000000000000000000000000000000000000000000000600052601160045260246000fd5b6000610ae382610978565b9150610aee83610978565b9250828201905080821115610b0657610b05610aa9565b5b92915050565b6000610b1782610978565b9150610b2283610978565b9250828203905081811115610b3a57610b39610aa9565b5b92915050565b6000604082019050610b556000830185610a05565b610b626020830184610982565b9392505050565b60008115159050919050565b610b7e81610b69565b8114610b8957600080fd5b50565b600081519050610b9b81610b75565b92915050565b600060208284031215610bb757610bb66108e8565b5b6000610bc584828501610b8c565b91505092915050565b600082825260208201905092915050565b7f4368756120647520323468000000000000000000000000000000000000000000600082015250565b6000610c15600b83610bce565b9150610c2082610bdf565b602082019050919050565b60006020820190508181036000830152610c4481610c08565b9050919050565b600081519050610c5a816109ac565b92915050565b600060208284031215610c7657610c756108e8565b5b6000610c8484828501610c4b565b91505092915050565b7f4661756365742068657420746f6b656e00000000000000000000000000000000600082015250565b6000610cc3601083610bce565b9150610cce82610c8d565b602082019050919050565b60006020820190508181036000830152610cf281610cb6565b9050919050565b6000606082019050610d0e6000830186610a05565b610d1b6020830185610a05565b610d286040830184610982565b94935050505056fea264697066735822122050e09e5b131e30f5b5eaec6b777e2b9ef87ab144a79311dc9c972e206779794264736f6c63430008180033",
  "linkReferences": {},
  "deployedLinkReferences": {}
}