{
  "_format": "hh-sol-artifact-1",
  "contractName": "TokenFaucet",
  "sourceName": "contracts/TokenFaucet.sol",
  "abi": [
    {
      "inputs": [
        {
          "internalType": "address",
          "name": "_token",
          "type": "address"
        }
      ],
      "stateMutability": "nonpayable",
      "type": "constructor"
    },
    {
      "inputs": [
        {
          "internalType": "address",
          "name": "owner",
          "type": "address"
        }
      ],
      "name": "OwnableInvalidOwner",
      "type": "error"
    },
    {
      "inputs": [
        {
          "internalType": "address",
          "name": "account",
          "type": "address"
        }
      ],
      "name": "OwnableUnauthorizedAccount",
      "type": "error"
    },
    {
      "anonymous": false,
      "inputs": [
        {
          "indexed": true,
          "internalType": "address",
          "name": "previousOwner",
          "type": "address"
        },
        {
          "indexed": true,
          "internalType": "address",
          "name": "newOwner",
          "type": "address"
        }
      ],
      "name": "OwnershipTransferred",
      "type": "event"
    },
    {
      "anonymous": false,
      "inputs": [
        {
          "indexed": true,
          "internalType": "address",
          "name": "user",
          "type": "address"
        },
        {
          "indexed": false,
          "internalType": "uint256",
          "name": "amount",
          "type": "uint256"
        }
      ],
      "name": "TokensRequested",
      "type": "event"
    },
    {
      "inputs": [],
      "name": "amount",
      "outputs": [
        {
          "internalType": "uint256",
          "name": "",
          "type": "uint256"
        }
      ],
      "stateMutability": "view",
      "type": "function"
    },
    {
      "inputs": [
        {
          "internalType": "uint256",
          "name": "_amount",
          "type": "uint256"
        }
      ],
      "name": "fundFaucet",
      "outputs": [],
      "stateMutability": "nonpayable",
      "type": "function"
    },
    {
      "inputs": [
        {
          "internalType": "address",
          "name": "",
          "type": "address"
        }
      ],
      "name": "lastRequest",
      "outputs": [
        {
          "internalType": "uint256",
          "name": "",
          "type": "uint256"
        }
      ],
      "stateMutability": "view",
      "type": "function"
    },
    {
      "inputs": [],
      "name": "owner",
      "outputs": [
        {
          "internalType": "address",
          "name": "",
          "type": "address"
        }
      ],
      "stateMutability": "view",
      "type": "function"
    },
    {
      "inputs": [],
      "name": "renounceOwnership",
      "outputs": [],
      "stateMutability": "nonpayable",
      "type": "function"
    },
    {
      "inputs": [],
      "name": "requestTokens",
      "outputs": [],
      "stateMutability": "nonpayable",
      "type": "function"
    },
    {
      "inputs": [],
      "name": "token",
      "outputs": [
        {
          "internalType": "contract ERC20",
          "name": "",
          "type": "address"
        }
      ],
      "stateMutability": "view",
      "type": "function"
    },
    {
      "inputs": [
        {
          "internalType": "address",
          "name": "newOwner",
          "type": "address"
        }
      ],
      "name": "transferOwnership",
      "outputs": [],
      "stateMutability": "nonpayable",
      "type": "function"
    },
    {
      "inputs": [],
      "name": "waitTime",
      "outputs": [
        {
          "internalType": "uint256",
          "name": "",
          "type": "uint256"
        }
      ],
      "stateMutability": "view",
      "type": "function"
    },
    {
      "inputs": [
        {
          "internalType": "uint256",
          "name": "_amount",
          "type": "uint256"
        }
      ],
      "name": "withdraw",
      "outputs": [],
      "stateMutability": "nonpayable",
      "type": "function"
    }
  ],
  "bytecode": "0x608060405268056bc75e2d63100000600255620151806003553480156200002557600080fd5b5060405162000f1f38038062000f1f83398181016040528101906200004b919062000249565b33600073ffffffffffffffffffffffffffffffffffffffff168173ffffffffffffffffffffffffffffffffffffffff1603620000c15760006040517f1e4fbdf7000000000000000000000000000000000000000000000000000000008152600401620000b891906200028c565b60405180910390fd5b620000d2816200011b60201b60201c565b5080600160006101000a81548173ffffffffffffffffffffffffffffffffffffffff021916908373ffffffffffffffffffffffffffffffffffffffff16021790555050620002a9565b60008060009054906101000a900473ffffffffffffffffffffffffffffffffffffffff169050816000806101000a81548173ffffffffffffffffffffffffffffffffffffffff021916908373ffffffffffffffffffffffffffffffffffffffff1602179055508173ffffffffffffffffffffffffffffffffffffffff168173ffffffffffffffffffffffffffffffffffffffff167f8be0079c531659141344cd1fd0a4f28419497f9722a3daafe3b4186f6b6457e060405160405180910390a35050565b600080fd5b600073ffffffffffffffffffffffffffffffffffffffff82169050919050565b60006200021182620001e4565b9050919050565b620002238162000204565b81146200022f57600080fd5b50565b600081519050620002438162000218565b92915050565b600060208284031215620002625762000261620001df565b5b6000620002728482850162000232565b91505092915050565b620002868162000204565b82525050565b6000602082019050620002a360008301846200027b565b92915050565b610c6680620002b96000396000f3fe608060405234801561001057600080fd5b506004361061009e5760003560e01c8063aa8c217c11610066578063aa8c217c14610121578063ae0140b41461013f578063ccca123b1461015b578063f2fde38b14610179578063fc0c546a146101955761009e565b80632e1a7d4d146100a3578063359cf2b7146100bf5780636fb9584f146100c9578063715018a6146100f95780638da5cb5b14610103575b600080fd5b6100bd60048036038101906100b89190610857565b6101b3565b005b6100c7610266565b005b6100e360048036038101906100de91906108e2565b61050e565b6040516100f0919061091e565b60405180910390f35b610101610526565b005b61010b61053a565b6040516101189190610948565b60405180910390f35b610129610563565b604051610136919061091e565b60405180910390f35b61015960048036038101906101549190610857565b610569565b005b610163610617565b604051610170919061091e565b60405180910390f35b610193600480360381019061018e91906108e2565b61061d565b005b61019d6106a3565b6040516101aa91906109c2565b60405180910390f35b6101bb6106c9565b600160009054906101000a900473ffffffffffffffffffffffffffffffffffffffff1673ffffffffffffffffffffffffffffffffffffffff1663a9059cbb61020161053a565b836040518363ffffffff1660e01b815260040161021f9291906109dd565b6020604051808303816000875af115801561023e573d6000803e3d6000fd5b505050506040513d601f19601f820116820180604052508101906102629190610a3e565b5050565b600354600460003373ffffffffffffffffffffffffffffffffffffffff1673ffffffffffffffffffffffffffffffffffffffff168152602001908152602001600020546102b39190610a9a565b4210156102f5576040517f08c379a00000000000000000000000000000000000000000000000000000000081526004016102ec90610b2b565b60405180910390fd5b600254600160009054906101000a900473ffffffffffffffffffffffffffffffffffffffff1673ffffffffffffffffffffffffffffffffffffffff166370a08231306040518263ffffffff1660e01b81526004016103539190610948565b602060405180830381865afa158015610370573d6000803e3d6000fd5b505050506040513d601f19601f820116820180604052508101906103949190610b60565b10156103d5576040517f08c379a00000000000000000000000000000000000000000000000000000000081526004016103cc90610bd9565b60405180910390fd5b42600460003373ffffffffffffffffffffffffffffffffffffffff1673ffffffffffffffffffffffffffffffffffffffff16815260200190815260200160002081905550600160009054906101000a900473ffffffffffffffffffffffffffffffffffffffff1673ffffffffffffffffffffffffffffffffffffffff1663a9059cbb336002546040518363ffffffff1660e01b81526004016104789291906109dd565b6020604051808303816000875af1158015610497573d6000803e3d6000fd5b505050506040513d601f19601f820116820180604052508101906104bb9190610a3e565b503373ffffffffffffffffffffffffffffffffffffffff167fc3fb6c98272d7a0d5dc26727b61c00ece2e5bf3dbdc0284659e28d441c1ce06c600254604051610504919061091e565b60405180910390a2565b60046020528060005260406000206000915090505481565b61052e6106c9565b6105386000610750565b565b60008060009054906101000a900473ffffffffffffffffffffffffffffffffffffffff16905090565b60025481565b6105716106c9565b600160009054906101000a900473ffffffffffffffffffffffffffffffffffffffff1673ffffffffffffffffffffffffffffffffffffffff166323b872dd3330846040518463ffffffff1660e01b81526004016105d093929190610bf9565b6020604051808303816000875af11580156105ef573d6000803e3d6000fd5b505050506040513d601f19601f820116820180604052508101906106139190610a3e565b5050565b60035481565b6106256106c9565b600073ffffffffffffffffffffffffffffffffffffffff168173ffffffffffffffffffffffffffffffffffffffff16036106975760006040517f1e4fbdf700000000000000000000000000000000000000000000000000000000815260040161068e9190610948565b60405180910390fd5b6106a081610750565b50565b600160009054906101000a900473ffffffffffffffffffffffffffffffffffffffff1681565b6106d1610814565b73ffffffffffffffffffffffffffffffffffffffff166106ef61053a565b73ffffffffffffffffffffffffffffffffffffffff161461074e57610712610814565b6040517f118cdaa70000000000000000000000000000000000000000000000000000000081526004016107459190610948565b60405180910390fd5b565b60008060009054906101000a900473ffffffffffffffffffffffffffffffffffffffff169050816000806101000a81548173ffffffffffffffffffffffffffffffffffffffff021916908373ffffffffffffffffffffffffffffffffffffffff1602179055508173ffffffffffffffffffffffffffffffffffffffff168173ffffffffffffffffffffffffffffffffffffffff167f8be0079c531659141344cd1fd0a4f28419497f9722a3daafe3b4186f6b6457e060405160405180910390a35050565b600033905090565b600080fd5b6000819050919050565b61083481610821565b811461083f57600080fd5b50565b6000813590506108518161082b565b92915050565b60006020828403121561086d5761086c61081c565b5b600061087b84828501610842565b91505092915050565b600073ffffffffffffffffffffffffffffffffffffffff82169050919050565b60006108af82610884565b9050919050565b6108bf816108a4565b81146108ca57600080fd5b50565b6000813590506108dc816108b6565b92915050565b6000602082840312156108f8576108f761081c565b5b6000610906848285016108cd565b91505092915050565b61091881610821565b82525050565b6000602082019050610933600083018461090f565b92915050565b610942816108a4565b82525050565b600060208201905061095d6000830184610939565b92915050565b6000819050919050565b600061098861098361097e84610884565b610963565b610884565b9050919050565b600061099a8261096d565b9050919050565b60006109ac8261098f565b9050919050565b6109bc816109a1565b82525050565b60006020820190506109d760008301846109b3565b92915050565b60006040820190506109f26000830185610939565b6109ff602083018461090f565b9392505050565b60008115159050919050565b610a1b81610a06565b8114610a2657600080fd5b50565b600081519050610a3881610a12565b92915050565b600060208284031215610a5457610a5361081c565b5b6000610a6284828501610a29565b91505092915050565b7f4e487b7100000000000000000000000000000000000000000000000000000000600052601160045260246000fd5b6000610aa582610821565b9150610ab083610821565b9250828201905080821115610ac857610ac7610a6b565b5b92915050565b600082825260208201905092915050565b7f4368756120647520323468000000000000000000000000000000000000000000600082015250565b6000610b15600b83610ace565b9150610b2082610adf565b602082019050919050565b60006020820190508181036000830152610b4481610b08565b9050919050565b600081519050610b5a8161082b565b92915050565b600060208284031215610b7657610b7561081c565b5b6000610b8484828501610b4b565b91505092915050565b7f4661756365742068657420746f6b656e00000000000000000000000000000000600082015250565b6000610bc3601083610ace565b9150610bce82610b8d565b602082019050919050565b60006020820190508181036000830152610bf281610bb6565b9050919050565b6000606082019050610c0e6000830186610939565b610c1b6020830185610939565b610c28604083018461090f565b94935050505056fea26469706673582212207745fafb42fa70a3ee3e67f0ea280de6d7c0f038dd7a8b55f5875432841ea5db64736f6c63430008180033",
  "linkReferences": {},
  "deployedLinkReferences": {}
}