{
  "_format": "hh-sol-artifact-1",
  "contractName": "TokenFaucet",
  "sourceName": "contracts/TokenFaucet.sol",
  "abi": [
    {
      "inputs": [
        {
          "internalType": "address",
          "name": "_token",
          "type": "address"
        }
      ],
      "stateMutability": "nonpayable",
      "type": "constructor"
    },
    {
      "inputs": [
        {
          "internalType": "address",
          "name": "owner",
          "type": "address"
        }
      ],
      "name": "OwnableInvalidOwner",
      "type": "error"
    },
    {
      "inputs": [
        {
          "internalType": "address",
          "name": "account",
          "type": "address"
        }
      ],
      "name": "OwnableUnauthorizedAccount",
      "type": "error"
    },
    {
      "anonymous": false,
      "inputs": [
        {
          "indexed": true,
          "internalType": "address",
          "name": "previousOwner",
          "type": "address"
        },
        {
          "indexed": true,
          "internalType": "address",
          "name": "newOwner",
          "type": "address"
        }
      ],
      "name": "OwnershipTransferred",
      "type": "event"
    },
    {
      "anonymous": false,
      "inputs": [
        {
          "indexed": true,
          "internalType": "address",
          "name": "claimant",
          "type": "address"
        },
        {
          "indexed": false,
          "internalType": "uint256",
          "name": "amount",
          "type": "uint256"
        },
        {
          "indexed": false,
          "internalType": "uint256",
          "name": "timestamp",
          "type": "uint256"
        }
      ],
      "name": "TokensClaimed",
      "type": "event"
    },
    {
      "anonymous": false,
      "inputs": [
        {
          "indexed": true,
          "internalType": "address",
          "name": "user",
          "type": "address"
        },
        {
          "indexed": false,
          "internalType": "uint256",
          "name": "amount",
          "type": "uint256"
        }
      ],
      "name": "TokensRequested",
      "type": "event"
    },
    {
      "inputs": [],
      "name": "amount",
      "outputs": [
        {
          "internalType": "uint256",
          "name": "",
          "type": "uint256"
        }
      ],
      "stateMutability": "view",
      "type": "function"
    },
    {
      "inputs": [
        {
          "internalType": "uint256",
          "name": "_amount",
          "type": "uint256"
        }
      ],
      "name": "fundFaucet",
      "outputs": [],
      "stateMutability": "nonpayable",
      "type": "function"
    },
    {
      "inputs": [
        {
          "internalType": "address",
          "name": "user",
          "type": "address"
        }
      ],
      "name": "getRemainingTime",
      "outputs": [
        {
          "internalType": "uint256",
          "name": "",
          "type": "uint256"
        }
      ],
      "stateMutability": "view",
      "type": "function"
    },
    {
      "inputs": [
        {
          "internalType": "address",
          "name": "",
          "type": "address"
        }
      ],
      "name": "lastRequest",
      "outputs": [
        {
          "internalType": "uint256",
          "name": "",
          "type": "uint256"
        }
      ],
      "stateMutability": "view",
      "type": "function"
    },
    {
      "inputs": [],
      "name": "owner",
      "outputs": [
        {
          "internalType": "address",
          "name": "",
          "type": "address"
        }
      ],
      "stateMutability": "view",
      "type": "function"
    },
    {
      "inputs": [],
      "name": "renounceOwnership",
      "outputs": [],
      "stateMutability": "nonpayable",
      "type": "function"
    },
    {
      "inputs": [],
      "name": "requestTokens",
      "outputs": [],
      "stateMutability": "nonpayable",
      "type": "function"
    },
    {
      "inputs": [],
      "name": "token",
      "outputs": [
        {
          "internalType": "contract ERC20",
          "name": "",
          "type": "address"
        }
      ],
      "stateMutability": "view",
      "type": "function"
    },
    {
      "inputs": [
        {
          "internalType": "address",
          "name": "newOwner",
          "type": "address"
        }
      ],
      "name": "transferOwnership",
      "outputs": [],
      "stateMutability": "nonpayable",
      "type": "function"
    },
    {
      "inputs": [],
      "name": "waitTime",
      "outputs": [
        {
          "internalType": "uint256",
          "name": "",
          "type": "uint256"
        }
      ],
      "stateMutability": "view",
      "type": "function"
    },
    {
      "inputs": [
        {
          "internalType": "uint256",
          "name": "_amount",
          "type": "uint256"
        }
      ],
      "name": "withdraw",
      "outputs": [],
      "stateMutability": "nonpayable",
      "type": "function"
    }
  ],
  "bytecode": "0x608060405268056bc75e2d63100000600255620151806003553480156200002557600080fd5b506040516200109a3803806200109a83398181016040528101906200004b919062000249565b33600073ffffffffffffffffffffffffffffffffffffffff168173ffffffffffffffffffffffffffffffffffffffff1603620000c15760006040517f1e4fbdf7000000000000000000000000000000000000000000000000000000008152600401620000b891906200028c565b60405180910390fd5b620000d2816200011b60201b60201c565b5080600160006101000a81548173ffffffffffffffffffffffffffffffffffffffff021916908373ffffffffffffffffffffffffffffffffffffffff16021790555050620002a9565b60008060009054906101000a900473ffffffffffffffffffffffffffffffffffffffff169050816000806101000a81548173ffffffffffffffffffffffffffffffffffffffff021916908373ffffffffffffffffffffffffffffffffffffffff1602179055508173ffffffffffffffffffffffffffffffffffffffff168173ffffffffffffffffffffffffffffffffffffffff167f8be0079c531659141344cd1fd0a4f28419497f9722a3daafe3b4186f6b6457e060405160405180910390a35050565b600080fd5b600073ffffffffffffffffffffffffffffffffffffffff82169050919050565b60006200021182620001e4565b9050919050565b620002238162000204565b81146200022f57600080fd5b50565b600081519050620002438162000218565b92915050565b600060208284031215620002625762000261620001df565b5b6000620002728482850162000232565b91505092915050565b620002868162000204565b82525050565b6000602082019050620002a360008301846200027b565b92915050565b610de180620002b96000396000f3fe608060405234801561001057600080fd5b50600436106100a95760003560e01c80638da5cb5b116100715780638da5cb5b1461013e578063aa8c217c1461015c578063ae0140b41461017a578063ccca123b14610196578063f2fde38b146101b4578063fc0c546a146101d0576100a9565b80630e85117a146100ae5780632e1a7d4d146100de578063359cf2b7146100fa5780636fb9584f14610104578063715018a614610134575b600080fd5b6100c860048036038101906100c3919061099d565b6101ee565b6040516100d591906109e3565b60405180910390f35b6100f860048036038101906100f39190610a2a565b61027f565b005b610102610332565b005b61011e6004803603810190610119919061099d565b61062c565b60405161012b91906109e3565b60405180910390f35b61013c610644565b005b610146610658565b6040516101539190610a66565b60405180910390f35b610164610681565b60405161017191906109e3565b60405180910390f35b610194600480360381019061018f9190610a2a565b610687565b005b61019e610735565b6040516101ab91906109e3565b60405180910390f35b6101ce60048036038101906101c9919061099d565b61073b565b005b6101d86107c1565b6040516101e59190610ae0565b60405180910390f35b600080600460008473ffffffffffffffffffffffffffffffffffffffff1673ffffffffffffffffffffffffffffffffffffffff1681526020019081526020016000205490506000810361024557600091505061027a565b6000600354826102559190610b2a565b90508042106102695760009250505061027a565b42816102759190610b5e565b925050505b919050565b6102876107e7565b600160009054906101000a900473ffffffffffffffffffffffffffffffffffffffff1673ffffffffffffffffffffffffffffffffffffffff1663a9059cbb6102cd610658565b836040518363ffffffff1660e01b81526004016102eb929190610b92565b6020604051808303816000875af115801561030a573d6000803e3d6000fd5b505050506040513d601f19601f8201168201806040525081019061032e9190610bf3565b5050565b600354600460003373ffffffffffffffffffffffffffffffffffffffff1673ffffffffffffffffffffffffffffffffffffffff1681526020019081526020016000205461037f9190610b2a565b4210156103c1576040517f08c379a00000000000000000000000000000000000000000000000000000000081526004016103b890610c7d565b60405180910390fd5b600254600160009054906101000a900473ffffffffffffffffffffffffffffffffffffffff1673ffffffffffffffffffffffffffffffffffffffff166370a08231306040518263ffffffff1660e01b815260040161041f9190610a66565b602060405180830381865afa15801561043c573d6000803e3d6000fd5b505050506040513d601f19601f820116820180604052508101906104609190610cb2565b10156104a1576040517f08c379a000000000000000000000000000000000000000000000000000000000815260040161049890610d2b565b60405180910390fd5b42600460003373ffffffffffffffffffffffffffffffffffffffff1673ffffffffffffffffffffffffffffffffffffffff16815260200190815260200160002081905550600160009054906101000a900473ffffffffffffffffffffffffffffffffffffffff1673ffffffffffffffffffffffffffffffffffffffff1663a9059cbb336002546040518363ffffffff1660e01b8152600401610544929190610b92565b6020604051808303816000875af1158015610563573d6000803e3d6000fd5b505050506040513d601f19601f820116820180604052508101906105879190610bf3565b503373ffffffffffffffffffffffffffffffffffffffff167fc3fb6c98272d7a0d5dc26727b61c00ece2e5bf3dbdc0284659e28d441c1ce06c6002546040516105d091906109e3565b60405180910390a23373ffffffffffffffffffffffffffffffffffffffff167f9923b4306c6c030f2bdfbf156517d5983b87e15b96176da122cd4f2effa4ba7b60025442604051610622929190610d4b565b60405180910390a2565b60046020528060005260406000206000915090505481565b61064c6107e7565b610656600061086e565b565b60008060009054906101000a900473ffffffffffffffffffffffffffffffffffffffff16905090565b60025481565b61068f6107e7565b600160009054906101000a900473ffffffffffffffffffffffffffffffffffffffff1673ffffffffffffffffffffffffffffffffffffffff166323b872dd3330846040518463ffffffff1660e01b81526004016106ee93929190610d74565b6020604051808303816000875af115801561070d573d6000803e3d6000fd5b505050506040513d601f19601f820116820180604052508101906107319190610bf3565b5050565b60035481565b6107436107e7565b600073ffffffffffffffffffffffffffffffffffffffff168173ffffffffffffffffffffffffffffffffffffffff16036107b55760006040517f1e4fbdf70000000000000000000000000000000000000000000000000000000081526004016107ac9190610a66565b60405180910390fd5b6107be8161086e565b50565b600160009054906101000a900473ffffffffffffffffffffffffffffffffffffffff1681565b6107ef610932565b73ffffffffffffffffffffffffffffffffffffffff1661080d610658565b73ffffffffffffffffffffffffffffffffffffffff161461086c57610830610932565b6040517f118cdaa70000000000000000000000000000000000000000000000000000000081526004016108639190610a66565b60405180910390fd5b565b60008060009054906101000a900473ffffffffffffffffffffffffffffffffffffffff169050816000806101000a81548173ffffffffffffffffffffffffffffffffffffffff021916908373ffffffffffffffffffffffffffffffffffffffff1602179055508173ffffffffffffffffffffffffffffffffffffffff168173ffffffffffffffffffffffffffffffffffffffff167f8be0079c531659141344cd1fd0a4f28419497f9722a3daafe3b4186f6b6457e060405160405180910390a35050565b600033905090565b600080fd5b600073ffffffffffffffffffffffffffffffffffffffff82169050919050565b600061096a8261093f565b9050919050565b61097a8161095f565b811461098557600080fd5b50565b60008135905061099781610971565b92915050565b6000602082840312156109b3576109b261093a565b5b60006109c184828501610988565b91505092915050565b6000819050919050565b6109dd816109ca565b82525050565b60006020820190506109f860008301846109d4565b92915050565b610a07816109ca565b8114610a1257600080fd5b50565b600081359050610a24816109fe565b92915050565b600060208284031215610a4057610a3f61093a565b5b6000610a4e84828501610a15565b91505092915050565b610a608161095f565b82525050565b6000602082019050610a7b6000830184610a57565b92915050565b6000819050919050565b6000610aa6610aa1610a9c8461093f565b610a81565b61093f565b9050919050565b6000610ab882610a8b565b9050919050565b6000610aca82610aad565b9050919050565b610ada81610abf565b82525050565b6000602082019050610af56000830184610ad1565b92915050565b7f4e487b7100000000000000000000000000000000000000000000000000000000600052601160045260246000fd5b6000610b35826109ca565b9150610b40836109ca565b9250828201905080821115610b5857610b57610afb565b5b92915050565b6000610b69826109ca565b9150610b74836109ca565b9250828203905081811115610b8c57610b8b610afb565b5b92915050565b6000604082019050610ba76000830185610a57565b610bb460208301846109d4565b9392505050565b60008115159050919050565b610bd081610bbb565b8114610bdb57600080fd5b50565b600081519050610bed81610bc7565b92915050565b600060208284031215610c0957610c0861093a565b5b6000610c1784828501610bde565b91505092915050565b600082825260208201905092915050565b7f4368756120647520323468000000000000000000000000000000000000000000600082015250565b6000610c67600b83610c20565b9150610c7282610c31565b602082019050919050565b60006020820190508181036000830152610c9681610c5a565b9050919050565b600081519050610cac816109fe565b92915050565b600060208284031215610cc857610cc761093a565b5b6000610cd684828501610c9d565b91505092915050565b7f4661756365742068657420746f6b656e00000000000000000000000000000000600082015250565b6000610d15601083610c20565b9150610d2082610cdf565b602082019050919050565b60006020820190508181036000830152610d4481610d08565b9050919050565b6000604082019050610d6060008301856109d4565b610d6d60208301846109d4565b9392505050565b6000606082019050610d896000830186610a57565b610d966020830185610a57565b610da360408301846109d4565b94935050505056fea2646970667358221220220a26a77dc936f921bc514acd605e1c2db24f21b4964e07b1b4ae485ef0c8ca64736f6c63430008180033",
  "linkReferences": {},
  "deployedLinkReferences": {}
}